S01A00004F62737461636C655F41766F6964616E63652E73726563F4
S113000045C0000060C000005EC000005CC000008D
S11300105AC0000002C1000056C0000054C00000D5
S113002052C0000050C000004EC000004CC0000090
S11300304AC0000048C0000046C0000044C00000A0
S113004042C0000040C000003EC000003CC00000B0
S11300503AC0000038C0000036C0000034C00000C0
S113006032C0000030C000002EC000002CC00000D0
S11300702AC0000028C0000026C0000024C00000E0
S113008022C0000020C000001EC0000011241FBEBA
S1130090CFEFD0E1DEBFCDBF11E0A0E0B1E0EAEDEB
S11300A0F5E000E00BBF02C007900D92A630B10747
S11300B0D9F721E0A6E0B1E001C01D92AF30B2074C
S11300C0E1F702D088C29CCF60E08CE090E0BBD026
S11300D015D0789480E040D02FEF80E792E0215053
S11300E080409040E1F700C0000080E083D013D14D
S11300F040E0D5D060E08DE0C4D0ECCFE0E0F1E0AA
S113010020813181528181E090E0BC0102C0660F00
S1130110771F3A95E2F7FC0102C0EE0FFF1F2A9504
S1130120E2F7462F4E2B9C0102C0220F331F5A9533
S1130130E2F7242B2093610025E02EBD20938A0052
S11301402AE02ABF2091030102C0880F991F2A9533
S1130150E2F789BF78940895CF93DF93482F50E056
S1130160FA01EA5FFE4F9081911141C0DA01A0507B
S1130170BF4F6C91E2E6F0E0908121E030E0E901CC
S113018002C0CC0FDD1F6A95E2F7BE016095709541
S113019069236083D5E0DA95F1F700006C919081D2
S11301A0E90102C0CC0FDD1F6A95E2F7BE01692B9D
S11301B06083D8E2DA95F1F76C91908102C0220F46
S11301C0331F6A95E2F72095309529232083FA019D
S11301D0EA5FFE4F91E09083811103C01DBC1CBCFB
S11301E006C0813021F41092890010928800DF91BA
S11301F0CF910895E82FF0E0EE0FFF1FE75FFE4F69
S113020060817181072E000C880B990BB7D026E60C
S113021036E646E050E416C108951F920F920FB6D9
S11302200F9211248F939F938CB59DB590930A01DF
S113023080930901109206019F918F910F900FBE38
S11302400F901F9018957894662379F090939800F6
S113025080939900EAE9F0E0808188618083EDE988
S1130260F0E080818660808308959093900089B93E
S11302708AB188618AB9E5E9F0E08081866080838B
S11302800895662341F0EBE9F0E0908195FFFDCFFE
S113029080939C0008955D9BFECF8CB90895BF9216
S11302A0CF92DF92EF92FF920F931F93CF93DF933E
S11302B06B017C01C42F99235CF4642F8DE2E1DF90
S11302C0F094E094D094C094C11CD11CE11CF11CA6
S11302D08AE0C816D104E104F1047CF0C701B60138
S11302E02AE030E040E050E038D169017A01B62ECE
S11302F04C2FC701B601D3DFCB2C6C2F80E38C0DC0
S1130300C0DFDF91CF911F910F91FF90EF90DF90AD
S1130310CF90BF90089504D06894B1118DC0089512
S113032070D088F09F5790F0B92F9927B751A0F05B
S1130330D1F0660F771F881F991F1AF0BA95C9F775
S113034012C0B13081F077D0B1E0089574C0672F46
S1130350782F8827B85F39F0B93FCCF38695779525
S11303606795B395D9F73EF490958095709561950E
S11303707F4F8F4F9F4F0895E89409C097FB3EF439
S113038090958095709561957F4F8F4F9F4F9923DE
S1130390A9F0F92F96E9BB279395F695879577955C
S11303A06795B795F111F8CFFAF4BB0F11F460FF1C
S11303B01BC06F5F7F4F8F4F9F4F16C0882311F074
S11303C096E911C0772321F09EE8872F762F05C088
S11303D0662371F096E8862F70E060E02AF09A9523
S11303E0660F771F881FDAF7880F9695879597F918
S11303F0089557FD9058440F551F59F05F3F71F011
S11304004795880F97FB991F61F09F3F79F0879577
S11304100895121613061406551FF2CF4695F1DF00
S113042008C0161617061806991FF1CF8695710590
S1130430610508940895E894BB2766277727CB01C4
S113044097F908950BD078C069D028F06ED018F0D1
S1130450952309F05AC05FC01124EECFCADFA0F380
S1130460959FD1F3950F50E0551F629FF001729F45
S1130470BB27F00DB11D639FAA27F00DB11DAA1F64
S1130480649F6627B00DA11D661F829F2227B00DB1
S1130490A11D621F739FB00DA11D621F839FA00D3C
S11304A0611D221F749F3327A00D611D231F849F8C
S11304B0600D211D822F762F6A2F11249F575040E3
S11304C08AF0E1F088234AF0EE0FFF1FBB1F661F7E
S11304D0771F881F91505040A9F79E3F510570F037
S11304E014C0AACF5F3FECF3983EDCF38695779572
S11304F06795B795F795E7959F5FC1F7FE2B880F32
S1130500911D9695879597F9089597F99F6780E8C7
S113051070E060E008959FEF80EC089500240A9451
S11305201616170618060906089500240A941216CA
S11305301306140605060895092E0394000C11F4FD
S1130540882352F0BB0F40F4BF2B11F460FF04C0AA
S11305506F5F7F4F8F4F9F4F0895052E97FB16F4C3
S113056000940FD057FD05D014D007FC02D046F4F8
S113057008C050954095309521953F4F4F4F5F4FA0
S1130580089590958095709561957F4F8F4F9F4FFB
S11305900895A1E21A2EAA1BBB1BFD010DC0AA1FC0
S11305A0BB1FEE1FFF1FA217B307E407F50720F0D8
S11305B0A21BB30BE40BF50B661F771F881F991F53
S11305C01A9469F760957095809590959B01AC019C
S10D05D0BD01CF010895F894FFCF98
S10905DA0001030402030A
S9030000FC
